{
  "contractName": "DiplomaContract",
  "abi": [
    {
      "inputs": [],
      "stateMutability": "nonpayable",
      "type": "constructor"
    },
    {
      "inputs": [
        {
          "internalType": "string",
          "name": "diplomaHash",
          "type": "string"
        },
        {
          "components": [
            {
              "internalType": "string",
              "name": "studentName",
              "type": "string"
            },
            {
              "internalType": "string",
              "name": "birthDate",
              "type": "string"
            },
            {
              "internalType": "string",
              "name": "diplomaType",
              "type": "string"
            },
            {
              "internalType": "string",
              "name": "dateOfIssue",
              "type": "string"
            },
            {
              "internalType": "string",
              "name": "speciality",
              "type": "string"
            }
          ],
          "internalType": "struct DiplomaContract.Diploma",
          "name": "diplomaData",
          "type": "tuple"
        }
      ],
      "name": "createDiploma",
      "outputs": [],
      "stateMutability": "nonpayable",
      "type": "function"
    },
    {
      "inputs": [
        {
          "internalType": "string",
          "name": "diplomaHash",
          "type": "string"
        }
      ],
      "name": "getDiploma",
      "outputs": [
        {
          "components": [
            {
              "internalType": "string",
              "name": "studentName",
              "type": "string"
            },
            {
              "internalType": "string",
              "name": "birthDate",
              "type": "string"
            },
            {
              "internalType": "string",
              "name": "diplomaType",
              "type": "string"
            },
            {
              "internalType": "string",
              "name": "dateOfIssue",
              "type": "string"
            },
            {
              "internalType": "string",
              "name": "speciality",
              "type": "string"
            }
          ],
          "internalType": "struct DiplomaContract.Diploma",
          "name": "",
          "type": "tuple"
        }
      ],
      "stateMutability": "view",
      "type": "function"
    }
  ],
  "bytecode": "0x608060405234801561001057600080fd5b50336000806101000a81548173ffffffffffffffffffffffffffffffffffffffff021916908373ffffffffffffffffffffffffffffffffffffffff160217905550610c02806100606000396000f3fe608060405234801561001057600080fd5b5060043610610053576000357c0100000000000000000000000000000000000000000000000000000000900480639c88cd1414610058578063c46d1be714610088575b600080fd5b610072600480360381019061006d91906104e4565b6100a4565b60405161007f9190610653565b60405180910390f35b6100a2600480360381019061009d9190610699565b6103b9565b005b6100ac610446565b600183836040516100be929190610754565b90815260200160405180910390206040518060a00160405290816000820180546100e79061079c565b80601f01602080910402602001604051908101604052809291908181526020018280546101139061079c565b80156101605780601f1061013557610100808354040283529160200191610160565b820191906000526020600020905b81548152906001019060200180831161014357829003601f168201915b505050505081526020016001820180546101799061079c565b80601f01602080910402602001604051908101604052809291908181526020018280546101a59061079c565b80156101f25780601f106101c7576101008083540402835291602001916101f2565b820191906000526020600020905b8154815290600101906020018083116101d557829003601f168201915b5050505050815260200160028201805461020b9061079c565b80601f01602080910402602001604051908101604052809291908181526020018280546102379061079c565b80156102845780601f1061025957610100808354040283529160200191610284565b820191906000526020600020905b81548152906001019060200180831161026757829003601f168201915b5050505050815260200160038201805461029d9061079c565b80601f01602080910402602001604051908101604052809291908181526020018280546102c99061079c565b80156103165780601f106102eb57610100808354040283529160200191610316565b820191906000526020600020905b8154815290600101906020018083116102f957829003601f168201915b5050505050815260200160048201805461032f9061079c565b80601f016020809104026020016040519081016040528092919081815260200182805461035b9061079c565b80156103a85780601f1061037d576101008083540402835291602001916103a8565b820191906000526020600020905b81548152906001019060200180831161038b57829003601f168201915b505050505081525050905092915050565b60008054906101000a900473ffffffffffffffffffffffffffffffffffffffff1673ffffffffffffffffffffffffffffffffffffffff163373ffffffffffffffffffffffffffffffffffffffff161461041157600080fd5b8060018484604051610424929190610754565b9081526020016040518091039020818161043e9190610bbe565b905050505050565b6040518060a0016040528060608152602001606081526020016060815260200160608152602001606081525090565b600080fd5b600080fd5b600080fd5b600080fd5b600080fd5b60008083601f8401126104a4576104a361047f565b5b8235905067ffffffffffffffff8111156104c1576104c0610484565b5b6020830191508360018202830111156104dd576104dc610489565b5b9250929050565b600080602083850312156104fb576104fa610475565b5b600083013567ffffffffffffffff8111156105195761051861047a565b5b6105258582860161048e565b92509250509250929050565b600081519050919050565b600082825260208201905092915050565b60005b8381101561056b578082015181840152602081019050610550565b60008484015250505050565b6000601f19601f8301169050919050565b600061059382610531565b61059d818561053c565b93506105ad81856020860161054d565b6105b681610577565b840191505092915050565b600060a08301600083015184820360008601526105de8282610588565b915050602083015184820360208601526105f88282610588565b915050604083015184820360408601526106128282610588565b9150506060830151848203606086015261062c8282610588565b915050608083015184820360808601526106468282610588565b9150508091505092915050565b6000602082019050818103600083015261066d81846105c1565b905092915050565b600080fd5b600060a082840312156106905761068f610675565b5b81905092915050565b6000806000604084860312156106b2576106b1610475565b5b600084013567ffffffffffffffff8111156106d0576106cf61047a565b5b6106dc8682870161048e565b9350935050602084013567ffffffffffffffff8111156106ff576106fe61047a565b5b61070b8682870161067a565b9150509250925092565b600081905092915050565b82818337600083830152505050565b600061073b8385610715565b9350610748838584610720565b82840190509392505050565b600061076182848661072f565b91508190509392505050565b7f4e487b7100000000000000000000000000000000000000000000000000000000600052602260045260246000fd5b600060028204905060018216806107b457607f821691505b6020821081036107c7576107c661076d565b5b50919050565b600080fd5b600080fd5b600080fd5b600080833560016020038436030381126107f9576107f86107cd565b5b80840192508235915067ffffffffffffffff82111561081b5761081a6107d2565b5b602083019250600182023603831315610837576108366107d7565b5b509250929050565b600082905092915050565b7f4e487b7100000000000000000000000000000000000000000000000000000000600052604160045260246000fd5b60008190508160005260206000209050919050565b60006020601f8301049050919050565b60008160020a8302905092915050565b6000600883026108de7fffffffffffffffffffffffffffffffffffffffffffffffffffffffffffffffff8261089e565b6108e8868361089e565b95508019841693508086168417925050509392505050565b6000819050919050565b6000819050919050565b600061092f61092a61092584610900565b61090a565b610900565b9050919050565b6000819050919050565b61094983610914565b61095d61095582610936565b8484546108ae565b825550505050565b600090565b610972610965565b61097d818484610940565b505050565b5b818110156109a15761099660008261096a565b600181019050610983565b5050565b601f8211156109e6576109b781610879565b6109c08461088e565b810160208510156109cf578190505b6109e36109db8561088e565b830182610982565b50505b505050565b60008160020a8304905092915050565b6000610a0c600019846008026109eb565b1980831691505092915050565b6000610a2583836109fb565b9150826002028217905092915050565b610a3f838361083f565b67ffffffffffffffff811115610a5857610a5761084a565b5b610a62825461079c565b610a6d8282856109a5565b6000601f831160018114610a9c5760008415610a8a578287013590505b610a948582610a19565b865550610afc565b601f198416610aaa86610879565b60005b82811015610ad257848901358255600182019150602085019450602081019050610aad565b86831015610aef5784890135610aeb601f8916826109fb565b8355505b6001600288020188555050505b50505050505050565b610b10838383610a35565b505050565b6000810160008301610b2781856107dc565b610b32818386610b05565b505050506001810160208301610b4881856107dc565b610b53818386610b05565b505050506002810160408301610b6981856107dc565b610b74818386610b05565b505050506003810160608301610b8a81856107dc565b610b95818386610b05565b505050506004810160808301610bab81856107dc565b610bb6818386610b05565b505050505050565b610bc88282610b15565b505056fea2646970667358221220c01f13181c14b66c6ceaf72874e7c3ec8b156a714dc1b8b42a306a5d71d3d96764736f6c63430008110033",
  "immutableReferences": {},
  "source": "// SPDX-License-Identifier: MIT\npragma solidity >=0.4.22 <0.9.0;\n\ncontract DiplomaContract {\n    constructor() public {\n        owner = msg.sender;\n    }\n\n    modifier onlyOwner() {\n        require(msg.sender == owner);\n        _;\n    }\n    struct Diploma {\n        string studentName;\n        string birthDate;\n        string diplomaType;\n        string dateOfIssue;\n        string speciality;\n    }\n\n    address owner;\n\n    mapping(string => Diploma) private diplomasList;\n\n    function createDiploma(\n        string calldata diplomaHash,\n        Diploma calldata diplomaData\n    ) external onlyOwner {\n        diplomasList[diplomaHash] = diplomaData;\n    }\n\n    function getDiploma(\n        string calldata diplomaHash\n    ) external view returns (Diploma memory) {\n        return diplomasList[diplomaHash];\n    }\n}\n",
  "sourcePath": "/home/rafik/pfe/smart-contract/contracts/DiplomaContract.sol",
  "compiler": {
    "name": "solc",
    "version": "0.8.17+commit.8df45f5f.Emscripten.clang"
  },
  "schemaVersion": "3.4.13",
  "updatedAt": "2023-04-29T22:36:11.639Z",
  "devdoc": {
    "kind": "dev",
    "methods": {},
    "version": 1
  },
  "userdoc": {
    "kind": "user",
    "methods": {},
    "version": 1
  }
}